:020000040800F2
:10000000B8070020890100088F130008B11200080A
:100010008D1300088F02000805170008000000007B
:1000200000000000000000000000000003140008B1
:1000300091020008000000000114000805140008E7
:10004000A3010008A3010008A3010008A301000800
:10005000A3010008A3010008A3010008A3010008F0
:10006000A3010008A3010008A3010008A3010008E0
:10007000A3010008A3010008A3010008A3010008D0
:10008000A3010008A3010008A3010008A3010008C0
:10009000A3010008A3010008A3010008A3010008B0
:1000A000A3010008A3010008A3010008A3010008A0
:1000B000A3010008A3010008A3010008A301000890
:1000C000A3010008A3010008A3010008A301000880
:1000D000A3010008ED160008F9160008A3010008A6
:1000E000A3010008A3010008A301000800F002F822
:1000F00000F03AF80AA090E8000C82448344AAF188
:100100000107DA4501D100F02FF8AFF2090EBAE885
:100110000F0013F0010F18BFFB1A43F0010318473B
:10012000FC1A00001C1B0000103A24BF78C878C1DC
:10013000FAD8520724BF30C830C144BF04680C60ED
:10014000704700000023002400250026103A28BF35
:1001500078C1FBD8520728BF30C148BF0B60704739
:100160001FB51FBD10B510BD00F058F81146FFF7C0
:10017000F7FF01F0F3FA00F076F803B4FFF7F2FFAF
:1001800003BC00F07DF8000009488047094800479B
:10019000FEE7FEE7FEE7FEE7FEE7FEE7FEE7FEE737
:1001A000FEE7FEE704480549054A064B7047000094
:1001B00067140008ED000008B8010020B80700200F
:1001C000B8030020B80300204FF0000200B513462A
:1001D00094469646203922BFA0E80C50A0E80C5067
:1001E000B1F12001BFF4F7AF090728BFA0E80C5018
:1001F00048BF0CC05DF804EB890028BF40F8042B11
:1002000008BF704748BF20F8022B11F0804F18BF7D
:1002100000F8012B7047704770477047754600F033
:100220002BF8AE4605006946534620F00700854688
:1002300018B020B5FFF7B6FFBDE820404FF000062C
:100240004FF000074FF000084FF0000B21F00701BE
:10025000AC46ACE8C009ACE8C009ACE8C009ACE801
:10026000C0098D46704710B50446AFF300802046A4
:10027000BDE81040FFF781BF0048704758010020DB
:1002800001491820ABBEFEE7260002007047FEE7DA
:10029000704710B590F821100022022905D00421E2
:1002A000816380F82020012010BD01680B6823F0D5
:1002B0000E030B6001680B6823F001030B6090F8DC
:1002C0004030C46B012101FA03F3636080F8211010
:1002D00080F82020104610BD10B590F821100024A1
:1002E000022903D00421816301243DE001680A68EA
:1002F00022F00E020A6001680A6822F001020A6018
:100300001A4A0168914201D1012121E0174A1432B1
:10031000914201D110211BE0144A2832914201D1AF
:10032000891515E0114A3C32914201D189140FE040
:100330000E4A5032914202D14FF4803108E00B4A0C
:100340006432914202D14FF4801101E04FF080718C
:10035000064A083A5160012180F82110002180F8F6
:100360002010416B01B18847204610BD08000240B3
:100370002DE9F84FDFF8B891002409F1040A0AF1D9
:10038000040B23460F270BF1040EC9E00125A540FD
:100390002A40AA427DD1674ED1F804C0ACEB0608D2
:1003A000B44532D014DCBCF1030F3AD009DCBCF107
:1003B000000F2AD0BCF1010F1CD0BCF1020F31D1CB
:1003C0001DE0BCF1110F17D0BCF1120F2AD119E0BA
:1003D000B8F5881F19D006DCB8F5803F15D0B8F500
:1003E000801F1FD111E0B8F5001F0ED0B8F5041F13
:1003F00018D10AE0CB6815E0CB681B1D12E0CB6872
:1004000008330FE0CB680C330CE08B682BB1012B69
:100410004FF0080303D0456104E0042302E00561C6
:1004200000E00023FF2A01D8064601E000F104069F
:100430004FEA840501D9A5F12005D6F8008007FA16
:1004400005FC28EA0C0803FA05F548EA0508C6F891
:1004500000804D68ED0062D5374DAE6946F001066B
:10046000AE61AD6924F0030605F001050095334D3A
:1004700006EB050CDCF80850A607360F07FA06F85D
:1004800025EA0805DFF8B880404503D14FF00008A1
:1004900017E044E0DFF8AC80404502D14FF001089E
:1004A0000FE0DFF8A480404502D14FF0020808E0D9
:1004B000DFF89880404502D14FF0030801E04FF08B
:1004C000040808FA06F848EA0508CCF808804D68E0
:1004D000D9F80060ED034D4601D5164300E0964380
:1004E0002E604D68DAF80060AD03554601D516431D
:1004F00000E096432E604D68DBF80060ED025D463B
:1005000001D5164300E096432E604D68DEF800608A
:10051000AD02754601D5164300E096432E60641C7B
:100520000D682A46E5407FF431AFBDE8F88F000042
:1005300000040140000011100010024000000140C2
:1005400000080140000C014000100140001401406F
:100550000AB1016170470904FBE7000001488068A7
:10056000704700002400002070B5040025D094F8E6
:100570003D00002520B984F83C50204600F0B8F832
:10058000242084F83D002068016821F00101016009
:100590002068016841F4004101602068016821F48D
:1005A0000041016000F000FA4D4A6168914201D8B3
:1005B0004C4900E04C49884201D2012070BD4B49B2
:1005C0002368B0FBF1F15E6826F03F060E435E60E3
:1005D0006368934206D94FF4967359434FF47A7384
:1005E000B1FBF3F12368491C1E6A26F03F06314334
:1005F00019626168914210D84900401EB0FBF1F2C7
:10060000521CC2F30B02042A01D2042022E0B0FBE8
:10061000F1F0401CC0F30B001CE0A268F2B301EB48
:10062000C10303EB0116431EB3FBF6F35B1C43F45B
:1006300080431B0549D092B301EBC10202EB0111CB
:10064000401EB0FBF1F0401CC0F30B0040F48040B2
:1006500040F400402168CA694CF6FF739A43104386
:10066000C861D4E9071001432068026822F0C00283
:1006700011430160D4E9030101432068826848F214
:10068000FF339A4311438160D4E90501084321688F
:10069000CA6822F0FF021043C86001E00EE016E0D5
:1006A0002068016841F0010101602564202084F880
:1006B0003D00256384F83E50002070BD01EB4106EB
:1006C000431EB3FBF6F35B1CB3E70120C2E701EB6B
:1006D0004101401EB0FBF1F0401CC0F30B00B7E736
:1006E000A086010080841E0000093D0040420F00EA
:1006F00010B586B00021009101910291039100682C
:100700000F4988421AD10F4CA06940F00800A0613F
:10071000A069694600F008000490C02000901220F3
:100720000190032003900848FFF722FEE06940F49F
:100730000010E061E06900F40010049006B010BD04
:100740000054004000100240000C01400248816843
:10075000027811448160704724000020074810B5DA
:10076000016841F010010160032000F075F80F20CE
:1007700000F006F800F024F8002010BD0020024030
:1007800070B50D4D04464FF47A712878B1FBF0F046
:100790000A490968B1FBF0F000F0ECFA48B9102CF6
:1007A00007D200222146501E00F036F800206C606F
:1007B00070BD012070BD000024000020300000202A
:1007C0000C4808B5816941F001018161816901F03E
:1007D00001010091C16941F08051C161C06900F01F
:1007E000805000900448416821F0E06141F00071C0
:1007F000416008BD0010024000000140002809DBF4
:1008000000F01F02012191404009800000F1E0202A
:10081000C0F8001170470000F0B40E4B1B680C4686
:10082000C3F30223C3F10705042D00D90425191DC4
:10083000072901D2002300E0DB1E012606FA05F19C
:10084000491E214099409E40761E16403143F0BC1F
:1008500000F059BF0CED00E0064900F007020868FF
:100860004FF6FF03184040EA0220034A1043086095
:10087000704700000CED00E00000FA052DE9F0479C
:100880000F46050061D0434E306800F00700B842C3
:1008900009D2306820F0070038433060306800F03B
:1008A0000700B84251D128683B4C810712D5400758
:1008B00003D5606840F4E06060602878000703D5E5
:1008C000606840F4605060606068A96820F0F000E3
:1008D000084360602878C00728D06868012810D0D5
:1008E0002168022810D0890700292EDA616821F0DA
:1008F000030101436160FFF731FE804641F2883910
:100900000DE021688903EFE78901EDE7FFF726FE97
:10091000A0EB0801494502D90320BDE8F0876068D3
:10092000696800F00C00B0EB810FEFD1306800F087
:100930000700B8420BD9306820F007003843306018
:10094000306800F00700B84201D00120E5E72878C0
:10095000400705D56068E96820F4E06008436060FE
:100960002878000706D56068296920F4605040EABD
:10097000C100606000F038F86168084AC1F30311F3
:10098000515CC8400649086006480068FFF7F8FE59
:100990000020C2E7002002400010024000180008BA
:1009A00030000020280000200448054900684968FC
:1009B000044AC1F30221515CC84070473000002056
:1009C00000100240101800080448054900684968F2
:1009D000044AC1F3C221515CC84070473000002076
:1009E000001002401018000812A185B00FC98DE850
:1009F0000F0014A0144A006804905168134801F0D5
:100A00000C03042B10D0082B0ED1C1F38343C90370
:100A10001DF803000AD5516804AAC1F34041515C96
:100A20000A4A5043B0FBF1F005B07047084948430B
:100A3000FAE7000002030405060708090A0B0C0D7B
:100A40000E0F1010010200000010024000127A0088
:100A500000093D002DE9F84F040070D02078C04D0A
:100A6000C00749D06868C0F38100012807D06868D2
:100A7000C0F38100022809D16868C00306D5286840
:100A8000800339D560680028E7D035E06068B0F5AC
:100A9000803F0BD010B1B0F5A02F11D0286820F402
:100AA00080302860286820F4802002E0286840F424
:100AB00080302860606890B1FFF750FD06460AE07C
:100AC000286840F480202860F0E700BFFFF746FD6B
:100AD000801B642873D828688003F7D50CE0FFF7E3
:100AE0003DFD064605E000BFFFF738FD801B64288A
:100AF000F0D828688003F7D420789A4E80074FF00A
:100B000001094FF0000839D5686810F00C0F07D0C4
:100B10006868C0F38100022809D16868C00306D460
:100B20002868800714D52069012808D110E02069C1
:100B3000B0B1C6F80090FFF711FD074605E00AE1E5
:100B4000FFF70CFDC01B0228C4D828688007F7D522
:100B50002868616920F0F80040EAC10028600DE0D3
:100B6000C6F80080FFF7FAFC074604E0FFF7F6FC42
:100B7000C01B022823D828688007F7D420780007F4
:100B80002CD57948A169D9B1C0F80090FFF7E6FCEF
:100B9000074604E0FFF7E2FCC01B02280FD8686A92
:100BA0008007F7D571484FF4FA510068B0FBF1F0B7
:100BB000009000BF0098411E0091FAD20EE080E044
:100BC000C0F80080FFF7CAFC074604E0FFF7C6FC48
:100BD000C01B022875D8686A8007F7D420784007C0
:100BE00060D5E8690027C00008D4E86940F080506B
:100BF000E861E869012700F0805000905C480168D6
:100C0000C90513D40168834641F480710160FFF780
:100C1000A5FC824606E000BFFFF7A0FCA0EB0A009F
:100C200064284ED8DBF80000C005F5D5E06801283F
:100C30000AD008B1052813D0286A20F001002862E4
:100C4000286A20F0040002E0286A40F001002862CF
:100C5000E06841F2883B98B1FFF780FC82460BE0E8
:100C6000286A40F004002862EEE700BFFFF776FC38
:100C7000A0EB0A0159455AD8286A8007F6D50CE03E
:100C8000FFF76CFC824605E0FFF768FCA0EB0A0169
:100C900059454CD8286A8007F6D41FB1E86920F07E
:100CA0008050E861E06988B36968C1F38101022975
:100CB00044D00228C6F8608004D0FFF74FFC0446F9
:100CC00038E034E0FFF74AFC074604E0FFF746FC53
:100CD000C01B02282BD828688001F7D4206AB0F501
:100CE000803F05D16868A16820F40030084368603F
:100CF000D4E908010843696821F474110843686065
:100D0000C6F86090FFF72AFC044606E025E000BF25
:100D1000FFF724FC001B022809D828688001F7D5BA
:100D20001BE000BFFFF71AFC001B022802D90320BA
:100D3000BDE8F88F28688001F4D40EE00128F7D0D0
:100D40006868226A00F48031914204D1616A00F43B
:100D50007010884201D00120EAE70020E8E7000097
:100D60000010024000004242800442423000002055
:100D70000070004010B5401EB0F1807F01D301200B
:100D800010BD4FF0E02460610F21601700F0BBFC44
:100D90000020A06107202061002010BD70B590F8F0
:100DA0003C20012A26D0012480F83C40022280F811
:100DB0003D2003685A689D6822F070060A68324335
:100DC0005A600D4B02689A4208D0B2F1804F05D0AC
:100DD0000A4B9A4202D00A4B9A4204D1496825F044
:100DE00080031943916080F83D40002180F83C1059
:100DF000084670BD022070BD002C01400004004078
:100E00000008004010B5040003D094F83D0010B174
:100E100007E0012010BD002084F83C00204600F0CF
:100E20001FF8022084F83D00211D206800F01CFB03
:100E3000012084F8460084F83E0084F83F0084F8DE
:100E4000400084F8410084F8420084F8430084F8AC
:100E5000440084F8450084F83D00002010BD0000E7
:100E600008B500680649884208D10648C16941F0C2
:100E70000401C161C06900F00400009008BD0000D9
:100E8000000800400010024070B5044690F83C0095
:100E9000012817D0012584F83C50022084F83D0039
:100EA0002068826822F0770222F47F42826008681C
:100EB000502830D00DDC20284DD005DC98B3102808
:100EC0003BD148E0022070BD302844D0402834D1C6
:100ED00039E0602828D0702806D0B0F5805F2CD08B
:100EE000B0F5005F29D10AE0CB68D1E90121206883
:100EF00000F0F0FA2068816841F0770109E0CB68E2
:100F0000D1E90121206800F0E5FA2068816841F408
:100F10008041816011E0CA684968206800F0ECFAFD
:100F20005021206807E016E0CA684968206800F090
:100F3000F4FA6021206800F0D7FA84F83D500020D0
:100F400084F83C0070BDCA684968206800F0D4FA93
:100F500040212068EFE7226801461046EBE7704722
:100F600070470000F8B5026804461068D1685369FC
:100F700010F00F0F4FF0000553D003F0010601F4FD
:100F8000907737435FD0C20705D0CA0503D5226CDE
:100F900042F001022264420705D5DA0703D0226C31
:100FA00042F002022264820705D5DA0703D0226CE0
:100FB00042F004022264020707D501F02002324306
:100FC00003D0226C42F008022264226C002A34D042
:100FD000800604D5880602D5204600F0D0FA2068A5
:100FE0004069216CC0F38010090700D430B320465B
:100FF00000F0ADFA2068416949061BD5416921F02E
:1010000040014161A06BA8B158494163A06BFFF753
:1010100063F9002811D0A06B416B01B0BDE8F0402E
:10102000084783060FD58B060DD52046BDE8F8404E
:1010300000F0A5BA2046FFF793FFF8BD2046FFF762
:101040008FFF2564F8BD266B2023012E52D1C606E2
:1010500050D5CE064ED510685068009050694006B5
:101060002AD5A16B086840680004000CEAD0A68D60
:101070008642E7D9E0858869202818D0D06820F416
:101080008070D0602068416921F0010141612068D1
:10109000416921F04001416184F83E3025632068B8
:1010A000C16821F01001C160A06BFFF7F2F8A08DBC
:1010B000E18D401A81B219E0A08DE18D401A81B214
:1010C000E08D0028BED00029BCD0D06820F49070FC
:1010D000D0602068426922F00102426184F83E300B
:1010E00025632068C26822F01002C2602046FFF724
:1010F00036FFF8BD05062BD50D0629D594F83D0021
:101100002128F6D1A068B0F5805F01D12069B0B187
:10111000206A411C2162216800784860E08C401EF2
:101120000004000CE084E4D12068C16821F0800153
:10113000C1602068C16841F04001C160F8BD206A0B
:101140000088C0F308005060206A801C2062E5E738
:101150004006F3D54806F1D5D168204621F040017C
:10116000D16084F83D3000F0A2F8F8BD3F150008CA
:1011700070B5040004D094F83D00002510B106E0DD
:10118000012070BD84F83C50204600F023F8242054
:1011900084F83D002068C16821F40051C1602046F8
:1011A00000F048FA2068016921F49041016120684B
:1011B000416921F02A0141612068C16841F4005170
:1011C000C1602564202084F83D0084F83E000020A2
:1011D00070BD000070B586B00024009401940294A4
:1011E00003942E4E03682E49022003222D4DB34254
:1011F00026D18B6943F480438B618B6903F4804370
:1012000004938B6943F004038B618969039201F0B5
:10121000040104910102CDE9001069462846FFF758
:10122000A7F82815CDE90004694628460294FFF77F
:101230009FF8002201212520FFF7EEFA252028E063
:10124000194EB34227D1CB6943F40033CB61CB694C
:1012500003F4003304938B6943F004038B618969C1
:10126000039201F0040104910421CDE900106946C4
:101270002846FFF77DF80820CDE900046946284696
:101280000294FFF775F8002201212620FFF7C4FA27
:101290002620FFF7B3FA06B070BD00000038014009
:1012A00000100240000801400044004070477047B1
:1012B000FEE7000030B585B0002418480094019482
:1012C00002940394816941F020018161816901F0F8
:1012D00020010491816941F004018161816901F07B
:1012E00004010491816941F00801816180690C4D1C
:1012F00000F008000490002210212846FFF728F98A
:10130000102000900120CDE90104022003906946DD
:101310002846FFF72DF805B030BD00000010024050
:101320000008014010B586B00024174800940194CD
:101330000294039404941349059401604721C0E981
:1013400001144FF6FF71C0E903148461FFF75AFDE1
:1013500008B172B6FEE74FF48050009069460A4823
:10136000FFF792FD08B172B6FEE7049404A906489F
:101370000594FFF713FD002801D072B6FEE706B012
:1013800010BD00000008004088000020FEE7FEE7D6
:101390001FB500200A4C0090019002900246039075
:1013A00008212046FFF7D4F808200121CDE90001EB
:1013B0000320CDE9021069462046FEF7D9FF1FBD84
:1013C000000801404143642291FBF2F170B58CB2F8
:1013D000001B0A4E85B2012208213046FFF7B8F8FB
:1013E000204600F0A1F9002208213046FFF7B0F8AE
:1013F0002846BDE8704000F097B9000000080140A1
:1014000070477047FFF7A2B930B58FB02821684602
:10141000FEF7DAFE14210AA8FEF7D6FE0121080421
:10142000CDE900100024029402250491CDE9075073
:101430004FF4E01009906846FFF70CFB08B172B654
:10144000FEE70F20CDE90A054FF48060CDE90C409E
:1014500002210AA80E94FFF711FA002801D072B6F3
:10146000FEE70FB030BD7047F0B50268164B174C61
:10147000174D4FF08047984205D0B84203D0A042A4
:1014800001D0A84203D122F070064A683243984244
:1014900005D0B84203D0A04201D0A84203D122F423
:1014A0004074CA6822434C6922F0800222430260E1
:1014B0008A68C2620A688262984201D1096901633E
:1014C00001214161F0BD0000002C014000040040FA
:1014D0000008004010B5846842EA032224F47F44E7
:1014E0000A432243826010BD826822F070020A43E0
:1014F00042F007018160704710B5036A046A24F066
:1015000001040462846924F0F00444EA021423F024
:101510000A020A438461026210BD10B5036A23F017
:10152000100303628369046A23F4704343EA0232BE
:1015300024F0A00343EA01118261016210BD10B5DD
:10154000406A0021C185C184FFF70AFD10BD016812
:10155000CA6822F49072CA6001684A6922F00102E6
:101560004A61016B012904D10168CA6822F01002A6
:10157000CA60202180F83E1000210163704708B541
:1015800090F83E10222901D0022008BD82684FF455
:1015900080539A4201D1016921B1816A9A421BD0DC
:1015A0004AB10AE00268816A5268C2F308020A80FE
:1015B000816A891C08E0026972B10268526802F00F
:1015C0007F020A70816A491C8162C18D491E09042B
:1015D000090CC18503D019E002685268F1E701687F
:1015E000CA6822F02002CA600168CA6822F48072C8
:1015F000CA6001684A6922F001024A61202180F82C
:101600003E10016B012903D0FFF750FE002008BDFA
:10161000002101630168CA6822F01002CA600168F3
:101620000A68D20602D50A6849680091818DFFF7E1
:1016300096FCEBE770B5044600680169E26821F4A6
:101640004051114301612169A06808436169084361
:101650002168CA6841F20C639A430243CA60206859
:101660004169A26921F44071114341611E4920681A
:10167000884202D1FFF7A8F901E0FFF795F900EBE6
:10168000C00101EB0012606864218000B2FBF0F33E
:10169000B3FBF1F36FF018067343B2FBF0F5B2FB46
:1016A000F0F605EB8305322303EB0515B5FBF1F5E9
:1016B000B6FBF1F605F0F00505EB0615B2FBF0F60A
:1016C000B2FBF0F0B0FBF1F06FF01802504306EB04
:1016D000800003EB0010B0FBF1F0216800F00F0078
:1016E0002844886070BD0000003801400148FFF7C1
:1016F00039BC0000D00000200148FFF733BC0000D7
:1017000014010020FEE70907090E002804DB00F1A0
:10171000E02080F80014704700F00F0000F1E02096
:1017200080F8141D704700000A4910B50B680A4A7A
:1017300043F2B0641268B2FBF4F2424302E008687C
:10174000401C08600868C01A9042F8D30020086066
:1017500010BD00000000002030000020FEF7FEFF5A
:10176000FFF752FEFFF7A6FDFFF7DCFD20481F49FB
:10177000002401601F49C0E901144FF48041C0E911
:10178000034144618461C4610462FEF7EDFE08B167
:1017900072B6FEE7164818499C304FF416550160A2
:1017A000C0E901540C26C460C0E904468461C461E8
:1017B000FFF7DEFC08B172B6FEE70D480F49E030D6
:1017C0000160C0E90154C460C0E904468461C46199
:1017D000FFF7CEFC08B172B6FEE7FFF7D9FD4FF474
:1017E0007A741E212046FFF7EDFDFAE70054004011
:1017F00034000020A0860100003801400044004071
:1018000000000000000000000102030406070809B0
:1018100000000000010203043C21444F435459508E
:10182000452068746D6C3E203C68746D6C3E0A3CCB
:10183000686561643E3C6D657461206E616D653DF7
:101840002276696577706F7274220909636F6E740E
:10185000656E743D2277696474683D64657669637A
:10186000652D77696474682C20696E697469616C90
:101870002D7363616C653D312E302C20757365725C
:101880002D7363616C61626C653D6E6F223E0A0967
:10189000093C7469746C653E4C454420434F4E547A
:1018A000524F4C3C2F7469746C653E0A3C737479DA
:1018B0006C653E68746D6C207B20666F6E742D665F
:1018C000616D696C793A2048656C7665746963610D
:1018D0003B200909646973706C61793A20696E6C08
:1018E000696E652D626C6F636B3B206D6172676919
:1018F0006E3A20307078206175746F3B2074657883
:10190000742D616C69676E3A2063656E7465723B15
:101910007D0A0909626F64797B6D617267696E2D5A
:10192000746F703A20353070783B7D206831207BB1
:10193000636F6C6F723A20233434343434343B6D2B
:10194000617267696E3A2035307078206175746F06
:1019500020333070783B7D09096833207B636F6CDE
:101960006F723A20233434343434343B6D617267FF
:10197000696E2D626F74746F6D3A20353070783BEC
:101980007D0A2E627574746F6E207B646973706C4F
:1019900061793A20626C6F636B3B09097769647403
:1019A000683A20383070783B6261636B67726F759C
:1019B0006E642D636F6C6F723A20233161626339FC
:1019C000633B626F726465723A206E6F6E653B6353
:1019D0006F6C6F723A2077686974653B09097061B2
:1019E0006464696E673A20313370782033307078E0
:1019F0003B746578742D6465636F726174696F6E92
:101A00003A206E6F6E653B666F6E742D73697A65F2
:101A10003A20323570783B09096D617267696E3A18
:101A200020307078206175746F20333570783B6397
:101A30007572736F723A20706F696E7465723B6273
:101A40006F726465722D7261646975733A203470C7
:101A5000783B7D0A09092E627574746F6E2D6F6E66
:101A6000207B6261636B67726F756E642D636F6C50
:101A70006F723A20233161626339633B7D0A2E62C3
:101A80007574746F6E2D6F6E3A616374697665203C
:101A900009097B6261636B67726F756E642D636F9A
:101AA0006C6F723A20233136613038353B7D0A2E17
:101AB000627574746F6E2D6F6666207B6261636BF6
:101AC00067726F756E642D636F6C6F723A2023338B
:101AD00034343935653B7D0A09092E627574746F9B
:101AE0006E2D6F66663A616374697665207B62610C
:101AF000636B67726F756E642D636F6C6F723A20E3
:101B0000233263336535303B7D0A70207B666F6E10
:101B1000742D73697A653A20313470783B636F6C49
:101B20006F723A20233838383B6D617267696E2DC9
:101B3000626F74746F6D3A20313070783B7D0A09A2
:101B4000093C2F7374796C653E0A3C2F68656164AB
:101B50003E0A3C626F64793E0A3C68313E45535010
:101B600038323636204C454420434F4E54524F4C69
:101B70003C2F68313E0A00003C703E4C45442053E7
:101B800074617475733A204F4E3C2F703E3C612057
:101B9000636C6173733D22627574746F6E2062753D
:101BA00074746F6E2D6F66662220687265663D22C2
:101BB0002F6C65646F6666223E4F46463C2F613E41
:101BC000000000003C703E4C454431205374617469
:101BD00075733A204F46463C2F703E3C6120636C43
:101BE0006173733D22627574746F6E2062757474D4
:101BF0006F6E2D6F6E2220687265663D222F6C65B8
:101C0000646F6E223E4F4E3C2F613E003C2F626F50
:101C100064793E3C2F68746D6C3E00003C1C0008EB
:101C2000000000203400000028010008701C00089B
:101C30003400002084070000440100080000000078
:101C400018180008781B0008C41B00080C1C0008AA
:101C50000000000000000000000000000000000084
:101C60000100000010000000000000000024F4004B
:04000005080000ED02
:00000001FF
