:020000040800F2
:100000004808002069020008D712000811100008F3
:10001000D51200085F0400088113000800000000EA
:10002000000000000000000000000000DB120008DB
:100030006104000800000000D9120008DD12000869
:10004000830200088302000883020008830200087C
:10005000830200088302000883020008830200086C
:10006000830200088302000883020008830200085C
:10007000830200088302000883020008830200084C
:10008000830200088302000883020008830200083C
:10009000830200088302000883020008830200082C
:1000A000830200088302000883020008830200081C
:1000B000830200088302000883020008830200080C
:1000C00083020008830200088302000883020008FC
:1000D00083020008830200088302000883020008EC
:1000E00083020008830200088302000883020008DC
:1000F00083020008830200088302000883020008CC
:1001000083020008830200088302000883020008BB
:1001100083020008830200088302000883020008AB
:10012000830200088302000883020008830200089B
:10013000830200088302000883020008830200088B
:10014000830200088302000883020008830200087B
:10015000830200088302000883020008830200086B
:10016000830200088302000883020008830200085B
:1001700083020008830200088302000800000000D8
:10018000830200088302000800F002F800F05CF827
:100190000AA090E8000C82448344AAF10107DA45E2
:1001A00001D100F051F8AFF2090EBAE80F0013F0D8
:1001B000010F18BFFB1A43F001031847D8140000C1
:1001C000F81400000A444FF0000C10F8013B13F043
:1001D000070408BF10F8014B1D1108BF10F8015BA0
:1001E000641E05D010F8016B641E01F8016BF9D193
:1001F00013F0080F1EBF10F8014BAD1C0C1B09D1EA
:100200006D1E58BF01F801CBFAD505E014F8016B5B
:1002100001F8016B6D1EF9D59142D6D370470000ED
:100220000023002400250026103A28BF78C1FBD8FF
:10023000520728BF30C148BF0B6070471FB501F09F
:1002400017FA1FBD10B510BD00F0CFF81146FFF72B
:10025000F5FF01F079F900F0EDF803B4FFF7F2FFD4
:1002600003BC00F0F5F80000094880470948004742
:10027000FEE7FEE7FEE7FEE7FEE7FEE7FEE7FEE756
:10028000FEE7FEE704480549054A064B70470000B3
:100290007113000889010008480200204808002066
:1002A000480400204804002053EA020C00F0698052
:1002B0002DE9F04B4FF00006002B1FBFB3FA83F57A
:1002C00003FA05F424FA05F65E4012BF1643B2FAAB
:1002D00082F502FA05F4C5F120051EBF22FA05FCDD
:1002E00044EA0C04203556EA044C4FEA144418BF83
:1002F000641C4FF000084FF00009904271EB030CB2
:1003000039D3002919BFB1FA81F701FA07F6B0FA1B
:1003100080F700FA07F6C7F120071EBF20FA07FC96
:1003200046EA0C062037B6FBF4FCA7EB0507103FA6
:1003300007F01F0BCBF120060CFA0BFB2CFA06F68C
:1003400044BFB3460026202FA4BF5E464FF0000BEB
:100350005BEA060C08BF4FF0010B19EB0B09ABFB76
:10036000027C48EB0608C01B06FB02CC0BFB03CC4F
:1003700071EB0C01C1E70B46024641464846BDE819
:10038000F08B13B54FF000004FF00001AFF3008089
:10039000BDE81C4070474FF0000200B5134694467C
:1003A0009646203922BFA0E80C50A0E80C50B1F1CD
:1003B0002001BFF4F7AF090728BFA0E80C5048BFE1
:1003C0000CC05DF804EB890028BF40F8042B08BF7F
:1003D000704748BF20F8022B11F0804F18BF00F87B
:1003E000012B7047704770477047754600F02CF836
:1003F000AE4605006946534620F00700854618B012
:1004000020B5FFF73FFFBDE820404FF000064FF05A
:1004100000074FF000084FF0000B21F00701AC4639
:10042000ACE8C009ACE8C009ACE8C009ACE8C00958
:100430008D46704710B50446AFF300802046BDE8F6
:100440001040FFF70ABF000000487047E801002095
:1004500001491820ABBEFEE7260002007047FEE708
:100460007047000070B5044600F00CF90546601CAA
:1004700002D004480078044400F004F9401BA04274
:10048000FAD370BD840100202DE9F84FDFF8BCA13C
:100490000022012503264FF00F090AF1040BAAF1EF
:1004A000040E00BF0B6805FA02F42340A34270D18A
:1004B0000F7907F00307012F01D0022F16D18768AB
:1004C0004FEA420806FA08FC27EA0C07D1F80CC0EC
:1004D0000CFA08FC4CEA070CC0F808C04768A743B0
:1004E0000C79C4F3001494403C4344600C79E44319
:1004F000A4070AD0C4684FEA420C06FA0CF7BC43C2
:100500008F6807FA0CF72743C7600C7904F00304DF
:10051000022C12D1D40800EB840CDCF820405707E1
:10052000FF0E09FA07F824EA0804D1F8108008FA47
:1005300007F848EA0408CCF8208004684FEA420C27
:1005400006FA0CF7BC430F7907F0030707FA0CF71C
:10055000274307604C6814F4403F70D03C4C276838
:1005600047F480472760246822F0030704F480449E
:100570000094384C07EB040CDCF8084897074FEA66
:10058000177809FA08F7BC43334FB84202D1002765
:1005900024E054E0314FB84201D101271EE0304F32
:1005A000B84201D1022719E02E4FB84201D10327EA
:1005B00014E02D4FB84201D104270FE02B4FB84271
:1005C00001D105270AE02A4FB84201D1062705E0EC
:1005D000284FB84201D1072700E0082707FA08F79B
:1005E0002743CCF80878DAF800405746D1F804C021
:1005F0009C435FEACC2C00D51C433C60DBF80040F8
:100600005F46D1F804C09C435FEA8C2C00D51C43A4
:100610003C60DEF800407746D1F804C09C435FEAB6
:100620008C3C00D51C433C60084F083F3C68D1F827
:1006300004C09C435FEACC3C00D51C433C60521C88
:10064000102AFFF42FAFBDE8F88F0000083C0140EE
:1006500044380240003001400000024000040240E3
:1006600000080240000C024000100240001402404A
:1006700000180240001C02400069084000D0012020
:100680007047000001488068704700008401002026
:1006900070B5040025D094F83D00002520B984F8F9
:1006A0003C50204600F04EF9242084F83D0020689C
:1006B000016821F0010101602068016841F40041F6
:1006C00001602068016821F40041016000F094FAA3
:1006D0004D4A6168914201D84C4900E04C4988423A
:1006E00001D2012070BD4B492368B0FBF1F15E6877
:1006F00026F03F060E435E606368934206D94FF4CE
:10070000967359434FF47A73B1FBF3F12368491C94
:100710001E6A26F03F06314319626168914210D883
:100720004900401EB0FBF1F2521CC2F30B02042A36
:1007300001D2042022E0B0FBF1F0401CC0F30B001A
:100740001CE0A268F2B301EBC10303EB0116431EE8
:10075000B3FBF6F35B1C43F480431B0549D092B313
:1007600001EBC10202EB0111401EB0FBF1F0401C95
:10077000C0F30B0040F4804040F400402168CA6997
:100780004CF6FF739A431043C861D4E90710014344
:100790002068026822F0C00211430160D4E903011D
:1007A00001432068826848F2FF339A431143816015
:1007B000D4E9050108432168CA6822F0FF0210430A
:1007C000C86001E00EE016E02068016841F0010118
:1007D00001602564202084F83D00256384F83E50A4
:1007E000002070BD01EB4106431EB3FBF6F35B1C1A
:1007F000B3E70120C2E701EB4101401EB0FBF1F07D
:10080000401CC0F30B00B7E7A086010080841E00E7
:1008100000093D0040420F002DE9F84F1F46904669
:100820008A460446DDF82890FFF72CFF054694F829
:100830003D0020287FD11923012240492046009500
:1008400000F072FC002876D194F83C00012872D0A8
:10085000012084F83C0020680168C90703D10168C1
:1008600041F0010101602068016821F4006101602C
:10087000212084F83D00102084F83E0000262664E4
:10088000C4F824806785608D20852D48E0622B4662
:100890004A465146204600F0D3FB90B92068416992
:1008A0008069009036E02A464946204600F0BBFCAD
:1008B00050B1206C042804D12068016841F4007113
:1008C00001600120BDE8F88F606A21680078086146
:1008D000606A401C6062618D491E6185218D491EE0
:1008E00089B2218522685369DB435B070BD451B180
:1008F00000781061606A401C6062608D401E6085F7
:10090000208D401E20852A464946204600F0E6FB01
:100910000028CED1208D0028C5D154F83D0B0168A8
:1009200041F400710160202004F81E09E677667723
:100930000020C7E7FFE70220C4E700000200100024
:100940000000FFFF10B586B0044614216846FFF78B
:1009500022FD13492068884220D1124800210268F4
:1009600042F002020260006800F002000590C02020
:1009700000901220CDE9010103200390042004908F
:1009800069460948FFF780FD06481030016841F4C8
:1009900000110160006800F40010059006B010BD61
:1009A0000054004030380240000402400248816890
:1009B0000278114481607047840100200B4810B513
:1009C000016841F400710160016841F480610160D7
:1009D000016841F480710160032000F061F80F208C
:1009E00000F006F800F024F8002010BD003C0240A2
:1009F00070B50D4D04464FF47A712878B1FBF0F0D4
:100A00000A490968B1FBF0F000F0EEFA48B9102C81
:100A100007D200222146501E00F022F800206C6010
:100A200070BD012070BD00008401002090010020F5
:100A30000A4808B5016841F480410160006800F48B
:100A4000804000900548001F016841F0805101601E
:100A5000006800F08050009008BD0000443802405B
:100A6000F0B40E4B1B680C46C3F30223C3F1070519
:100A7000042D00D90425191D072901D2002300E007
:100A8000DB1E012606FA05F1491E214099409E40D1
:100A9000761E16403143F0BC00F073BC0CED00E054
:100AA000064900F0070208684FF6FF03184040EAC5
:100AB0000220034A10430860704700000CED00E07C
:100AC0000000FA052DE9F0470E46050065D0DFF875
:100AD0001481D8F80000F7B200F00700B04207D246
:100AE00088F80070D8F8000000F00700B04254D138
:100AF00028683D4C810712D5400703D5206840F493
:100B0000E05020602878000703D5206840F460405A
:100B100020602068A96820F0F00008432060287851
:100B2000C0072DD0304968680839012812D0022842
:100B300013D0032811D00968890700292DDA21680C
:100B400021F0030101432160FFF79CFD814641F242
:100B5000883A0EE009688903EFE709688901ECE744
:100B6000FFF790FDA0EB0901514502D90320BDE834
:100B7000F0872068696800F00C00B0EB810FEFD1BE
:100B8000D8F80010404601F00701B14207D90770BC
:100B9000006800F00700B04201D00120E7E72878A4
:100BA000400705D52068E96820F4E050084320603C
:100BB0002878000706D52068296920F4604040EABB
:100BC000C100206000F028F82168084AC1F3031131
:100BD000515CC8400649086006480068FFF708FFF6
:100BE0000020C4E7003C0240083802407A160008A2
:100BF0009001002088010020044805490068096828
:100C0000044AC1F38221515CC84070479001002022
:100C1000083802408A160008154810B5006810F020
:100C20000C02144813D01449042A0FD0082A0ED1FC
:100C30000F4C241F2268236802F03F025B0207D595
:100C40002068C0F38810A0FB010106E0084610BD33
:100C50002168C1F38811A1FB00010023FFF724FBE9
:100C60002168C1F30141491C4900B0FBF1F010BDFE
:100C7000083802400024F40040787D012DE9F84F47
:100C800004006ED02078DFF84C93C007A9F104056A
:100C90004AD009F104000168C1F38101012908D09B
:100CA0000068C0F3810002280AD1D9F80000400290
:100CB00006D52868800337D560680028E1D033E086
:100CC0006068B0F5803F10D0B0F5A02F286810D034
:100CD00020F480302860286820F480202860606834
:100CE000A8B1FFF7CFFC06460DE0286840F480303D
:100CF000F4E740F480202860F7E700BFFFF7C2FC6C
:100D0000801B642873D828688003F7D50CE0FFF7B0
:100D1000B9FC064605E000BFFFF7B4FC801B642861
:100D2000F0D828688003F7D42078DFF8AC828007F9
:100D30004FF0000A3ED5A748001D016811F00C0FC6
:100D400008D00068C0F3810002280BD1D9F8000058
:100D5000400207D42868800716D5E068012800D132
:100D600012E033E1E068B8B10120C8F80000FFF7F5
:100D700089FC064605E000BFFFF784FC801B0228C3
:100D8000C0D828688007F7D52868216920F0F800C6
:100D900040EAC10028600DE0C8F800A0FFF772FC2F
:100DA000064604E0FFF76EFC801B02281FD8286867
:100DB0008007F7D42078000722D5864F87486169DD
:100DC000703771B101210160FFF75CFC064604E059
:100DD000FFF758FC801B022809D838688007F7D530
:100DE0000EE0C0F800A0FFF74DFC064605E082E0EB
:100DF000FFF748FC801B02287DD838688007F7D4AD
:100E00002078400768D5DFF8CCB100270BF13C0B08
:100E1000DBF80000C0000BD4DBF8001041F080517B
:100E2000CBF80010DBF80000012700F080500090A4
:100E30006B4E3068C00510D4306840F4807030606C
:100E4000FFF720FC009005E0FFF71CFC0099401A1A
:100E5000022850D83068C005F6D55E4EA0686C36C2
:100E600001280FD00528306810D020F00100306034
:100E7000306820F004003060A068B8B1FFF702FCD1
:100E800000900FE0306840F00100F4E740F004000B
:100E90003060F7E7FFF7F6FB0099411A41F288301E
:100EA000814266D830688007F4D50EE0FFF7EAFB90
:100EB000009007E0FFF7E6FB0099411A41F2883005
:100EC000814256D830688007F4D42FB1DBF8001087
:100ED00021F08051CBF80010A069C8B33D49091D2D
:100EE0000968C1F3810102294AD00228504607D07F
:100EF000C8F8600000E03CE0FFF7C4FB04463BE0BC
:100F00004746C8F86000FFF7BDFB064605E000BF96
:100F1000FFF7B8FB801B02282BD828688001F7D484
:100F2000D4E907010843A16A2E4A490802EB0141AE
:100F3000626A41EA8211084394F82C1040EA016188
:100F4000C9F8001001203866FFF79CFB044606E054
:100F50003EE000BFFFF796FB001B022809D8286877
:100F60008001F7D534E000BFFFF78CFB001B02289F
:100F700002D90320BDE8F88F28688001F4D427E067
:100F80000128F7D0D9F80000E26900F4800191420D
:100F90001CD1226A00F03F01914217D147F6C0717F
:100FA000626A0140B1EB821F10D1A26A4FF0FF3399
:100FB00000F4403103EB5202B1EB024F06D194F83A
:100FC0002C1000F07060B0EB016F01D00120D1E770
:100FD0000020CFE70438024000004742800E47421D
:100FE000007000400000FFFF10B5401EB0F1807F90
:100FF00001D3012010BD4FF0E02460610F21601784
:1010000000F0BFF90020A06107202061002010BD82
:10101000FEE701684A69D24352050FD46FF480623B
:101020004A61002140F8301F202242738173026917
:1010300042F00402026101730120704700207047F2
:10104000F8B50446C06A1E460D461746082807D064
:10105000012805D010F5803F02D0206B122804D162
:101060002068016841F480710160134600224FF04E
:1010700001112046009600F057F840B12068006842
:10108000C00502D54FF4007020640320F8BD20692C
:10109000B0F5804F0ED00620216800EAD51040F050
:1010A000F000086133463A460B49204600F070F8DC
:1010B00078B902E005F0FE0000E0E8B221680861BE
:1010C000054933463A46891F204600F061F800285A
:1010D000DCD00120F8BD00000800010070B5164604
:1010E0000D4604460DE02046FFF793FF08B10120AE
:1010F00070BD681C05D0FFF7C5FA801BA84207D851
:1011000035B120684069C0434007ECD4002070BD71
:10111000002044F8300F20216173A073216941F051
:10112000200121612073E2E72DE9F0471E46904639
:101130000D460446C1F30747DDF8209008E0701C17
:1011400006D0FFF79FFAA0EB0900B0420FD876B1A6
:101150002068012F18D0806925EA00000004000CE7
:1011600014D000214145EAD00020BDE8F0870020DE
:1011700044F8300F20216173A073216941F02001F0
:10118000216120730120F0E74069E5E70121E9E7EB
:101190002DE9F0479A4691460E46044600254FF049
:1011A0002008C1F3074725E020684069C043400597
:1011B00014D42068016841F40071016021686FF463
:1011C00080604861256384F83D8084F83E50206C3F
:1011D00040F00400206484F83C501FE0B9F1FF3F68
:1011E00008D0FFF74FFAA0EB0A0149450CD8B9F136
:1011F000000F09D02068012F13D0806926EA000073
:101200000004000C0BD0CFE744F8305F84F80D8069
:10121000A573206940F02000206125730120BDE8FE
:10122000F0874069EAE770B516460D4604460DE0C2
:101230002046FFF7EEFE08B1012070BD681C05D006
:10124000FFF720FA801BA84207D835B12068406913
:10125000C0430006ECD4002070BD002044F8300FDD
:1012600020216173A073216941F020012161207365
:10127000E2E7000000B587B014216846FFF78BF85D
:1012800012480021026842F080020260026802F007
:1012900080020592026842F001020260026802F0D8
:1012A00001020592026842F002020260006800F04A
:1012B000020005903E20CDE900010220029069461F
:1012C0000348FFF7E1F807B000BD000030380240E6
:1012D00000000240FEE7FEE770477047FFF766BB7D
:1012E00030B593B030216846FFF755F814210CA8AB
:1012F000FFF751F81C480025016841F0805101605A
:10130000006800F0805011901848016841F4804155
:1013100001600068022400F48040119001200090D8
:10132000000401908001CDE906401920089090202A
:10133000CDE9090404200B906846FFF79FFC08B133
:1013400072B6FEE70CA90F2081E831004FF48050FF
:10135000CDE90F0502210CA8FFF7B4FB002801D04E
:1013600072B6FEE713B030BD403802400070004056
:101370000248016841F470010160704788ED00E0A7
:10138000FEE70907090E002804DB00F1E02080F8E1
:101390000014704700F00F0000F1E02080F8141DE9
:1013A0007047000070B504460D46802000F082F8BA
:1013B000201D00F0BFF8942000F07CF804F1180024
:1013C00000F0B8F8C02000F075F804F1300000F02B
:1013D000B1F8D42000F06EF804F1480000F0AAF84B
:1013E0000021284600F050F8BDE8704001A000F050
:1013F000A1B800002D3E000010B5802000F05AF882
:101400000024202000F076F8641C502CF9DB10BD7D
:1014100010B53220FFF726F8302000F04BF80520F9
:10142000FFF720F8302000F045F80120FFF71AF808
:10143000302000F03FF80A20FFF714F8202000F0D9
:1014400039F80A20FFF70EF8282000F033F80120C1
:10145000FFF708F8082000F02DF80120FFF702F848
:10146000012000F027F80120FEF7FCFF0120FEF725
:10147000F9FF062000F01EF80120FEF7F3FFBDE89B
:1014800010400C2000F016B830B1012807D0022817
:1014900008D003280BD108E041F0800107E041F0BB
:1014A000C00104E041F0940101E041F0D401C8B270
:1014B000AFF300801CB500F0F00141F00C028DF894
:1014C000042041F0080100018DF8051040F00C01E6
:1014D0008DF8061040F008008DF807006420009099
:1014E000042301AA4E210248FFF796F91CBD000013
:1014F000940100201CB500F0F00141F00D028DF8C0
:10150000042041F0090100018DF8051040F00D01A3
:101510008DF8061040F009008DF807006420009057
:10152000042301AA4E210248FFF776F91CBD0000F2
:101530009401002010B5044602E0641CFFF7DAFFB6
:1015400020780028F9D110BDFFF738FAFFF7C8FE60
:10155000FFF790FE424841494FF480420160414903
:10156000416000218160C0E9031241618161C16174
:101570000162FFF78DF808B172B6FEE7FFF748FF8A
:10158000FFF73AFF384C251F20462978FFF70AFF5E
:10159000364E04213046FFF76FF801280ED10421A2
:1015A0003046FFF769F80128F9D0287803280CD0D5
:1015B000401CC1B229702046FFF7F4FE02213046DC
:1015C000FFF75AF8012802D010E00120F1E70221CC
:1015D0003046FFF751F80128F9D0287801280CD0BF
:1015E000401EC1B229702046FFF7DCFE10213046B4
:1015F000FFF742F8012802D01BE00320F1E7102199
:101600003046FFF739F80128F9D02978012904D0AC
:10161000022904D0032909D105E0E06A04E0606CE6
:1016200018B9204601E0E06D00B104462046FFF7FE
:10163000B9FE08213046FFF71FF80128A9D108217B
:101640003046FFF719F80128F9D0206800B10446A8
:1016500029782046FFF7A6FE9BE7000000540040D3
:1016600094010020A0860100040000200000024038
:101670004FF04070E1EE100A7047000000000000DB
:10168000000001020304060708090000000001022F
:1016900003040000B41600080000002094010000BC
:1016A000C40100083417000894010020B4060000AB
:1016B000200200087201280F090909204D41494EF6
:1016C000204D454E55200121380A20204F70746965
:1016D0006F6E311049012A641759189A32189AC44A
:1016E000189A33181324011B20041C295F5C656EB3
:1016F0007551BA09609A34304169180A1535181ABB
:1017000036AD195091296029018961699A490E0AFB
:101710001537480A153818DA3918F9C0CA33C00B1A
:10172000143130480B15313118CA32C132018210E0
:041730001324F4008A
:040000050800018965
:00000001FF
