:020000040800F2
:1000000048080020C9010008D3100008150E000898
:10001000D1100008CF0200083D11000800000000C8
:10002000000000000000000000000000D7100008E1
:10003000D102000800000000D5100008D910000807
:10004000E3010008E3010008E3010008E301000800
:10005000E3010008E3010008E3010008E3010008F0
:10006000E3010008E3010008E3010008E3010008E0
:10007000E3010008E3010008E3010008E3010008D0
:10008000E3010008E3010008E3010008E3010008C0
:10009000E3010008E3010008E3010008E3010008B0
:1000A000E3010008E3010008E3010008E3010008A0
:1000B000E3010008E3010008E3010008E301000890
:1000C000E3010008E3010008E3010008E301000880
:1000D000E3010008E3010008E3010008E301000870
:1000E000E3010008E3010008E301000800F002F862
:1000F00000F05AF80AA090E8000C82448344AAF168
:100100000107DA4501D100F04FF8AFF2090EBAE865
:100110000F0013F0010F18BFFB1A43F0010318473B
:100120002C1300004C1300000A444FF0000C10F890
:10013000013B13F0070408BF10F8014B1D1108BF65
:1001400010F8015B641E05D010F8016B641E01F805
:10015000016BF9D113F0080F1EBF10F8014BAD1C55
:100160000C1B09D16D1E58BF01F801CBFAD505E073
:1001700014F8016B01F8016B6D1EF9D59142D6D3CD
:10018000704700000023002400250026103A28BFF5
:1001900078C1FBD8520728BF30C148BF0B607047F9
:1001A0001FB51FBD10B510BD00F058F81146FFF780
:1001B000F7FF01F0ABF800F076F803B4FFF7F2FFB9
:1001C00003BC00F07DF8000009488047094800475B
:1001D000FEE7FEE7FEE7FEE7FEE7FEE7FEE7FEE7F7
:1001E000FEE7FEE704480549054A064B7047000054
:1001F0003B110008ED0000084802002048080020DC
:1002000048040020480400204FF0000200B51346C7
:1002100094469646203922BFA0E80C50A0E80C5026
:10022000B1F12001BFF4F7AF090728BFA0E80C50D7
:1002300048BF0CC05DF804EB890028BF40F8042BD0
:1002400008BF704748BF20F8022B11F0804F18BF3D
:1002500000F8012B7047704770477047754600F0F3
:100260002BF8AE4605006946534620F00700854648
:1002700018B020B5FFF7B6FFBDE820404FF00006EC
:100280004FF000074FF000084FF0000B21F007017E
:10029000AC46ACE8C009ACE8C009ACE8C009ACE8C1
:1002A000C0098D46704710B50446AFF30080204664
:1002B000BDE81040FFF781BF00487047E80100200B
:1002C00001491820ABBEFEE7260002007047FEE79A
:1002D0007047000070B5044600F004F90546601C44
:1002E00002D004480078044400F0FCF8401BA0420F
:1002F000FAD370BD840100202DE9F84FDFF8B891E2
:10030000002409F1040A0AF1040B23460F270BF11C
:10031000040EC9E00125A5402A40AA427DD1674EBE
:10032000D1F804C0ACEB0608B44532D014DCBCF103
:10033000030F3AD009DCBCF1000F2AD0BCF1010F49
:100340001CD0BCF1020F31D11DE0BCF1110F17D050
:10035000BCF1120F2AD119E0B8F5881F19D006DCBC
:10036000B8F5803F15D0B8F5801F1FD111E0B8F562
:10037000001F0ED0B8F5041F18D10AE0CB6815E0B5
:10038000CB681B1D12E0CB6808330FE0CB680C3341
:100390000CE08B682BB1012B4FF0080303D04561B3
:1003A00004E0042302E0056100E00023FF2A01D8F5
:1003B000064601E000F104064FEA840501D9A5F1E3
:1003C0002005D6F8008007FA05FC28EA0C0803FA95
:1003D00005F548EA0508C6F800804D68ED0062D5CD
:1003E000374DAE6946F00106AE61AD6924F00306F3
:1003F00005F001050095334D06EB050CDCF80850BF
:10040000A607360F07FA06F825EA0805DFF8B880D0
:10041000404503D14FF0000817E044E0DFF8AC801E
:10042000404502D14FF001080FE0DFF8A4804045BD
:1004300002D14FF0020808E0DFF89880404502D171
:100440004FF0030801E04FF0040808FA06F848EA04
:100450000508CCF808804D68D9F80060ED034D46DA
:1004600001D5164300E096432E604D68DAF800602F
:10047000AD03554601D5164300E096432E604D6806
:10048000DBF80060ED025D4601D5164300E09643BF
:100490002E604D68DEF80060AD02754601D516434A
:1004A00000E096432E60641C0D682A46E5407FF408
:1004B00031AFBDE8F88F00000004014000001110CA
:1004C000001002400000014000080140000C014003
:1004D00000100140001401408068084000D0012055
:1004E00070470000014880687047000084010020C8
:1004F00070B5040025D094F83D00002520B984F89B
:100500003C50204600F04EF9242084F83D0020683D
:10051000016821F0010101602068016841F4004197
:1005200001602068016821F40041016000F088FA50
:100530004D4A6168914201D84C4900E04C498842DB
:1005400001D2012070BD4B492368B0FBF1F15E6818
:1005500026F03F060E435E606368934206D94FF46F
:10056000967359434FF47A73B1FBF3F12368491C36
:100570001E6A26F03F06314319626168914210D825
:100580004900401EB0FBF1F2521CC2F30B02042AD8
:1005900001D2042022E0B0FBF1F0401CC0F30B00BC
:1005A0001CE0A268F2B301EBC10303EB0116431E8A
:1005B000B3FBF6F35B1C43F480431B0549D092B3B5
:1005C00001EBC10202EB0111401EB0FBF1F0401C37
:1005D000C0F30B0040F4804040F400402168CA6939
:1005E0004CF6FF739A431043C861D4E907100143E6
:1005F0002068026822F0C00211430160D4E90301BF
:1006000001432068826848F2FF339A4311438160B6
:10061000D4E9050108432168CA6822F0FF021043AB
:10062000C86001E00EE016E02068016841F00101B9
:1006300001602564202084F83D00256384F83E5045
:10064000002070BD01EB4106431EB3FBF6F35B1CBB
:10065000B3E70120C2E701EB4101401EB0FBF1F01E
:10066000401CC0F30B00B7E7A086010080841E0089
:1006700000093D0040420F002DE9F84F1F4690460B
:100680008A460446DDF82890FFF72CFF054694F8CB
:100690003D0020287FD119230122404920460095A2
:1006A00000F044FC002876D194F83C00012872D078
:1006B000012084F83C0020680168C90703D1016863
:1006C00041F0010101602068016821F400610160CE
:1006D000212084F83D00102084F83E000026266486
:1006E000C4F824806785608D20852D48E0622B4604
:1006F0004A465146204600F0A5FB90B92068416962
:100700008069009036E02A464946204600F08DFC7C
:1007100050B1206C042804D12068016841F40071B4
:1007200001600120BDE8F88F606A216800780861E7
:10073000606A401C6062618D491E6185218D491E81
:1007400089B2218522685369DB435B070BD451B121
:1007500000781061606A401C6062608D401E608598
:10076000208D401E20852A464946204600F0B8FBD1
:100770000028CED1208D0028C5D154F83D0B01684A
:1007800041F400710160202004F81E09E6776677C5
:100790000020C7E7FFE70220C4E7000002001000C6
:1007A0000000FFFF10B586B0002100910191029179
:1007B000039100680F4988421AD10F4CA06940F09C
:1007C0000800A061A069694600F008000490C020FC
:1007D000009012200190032003900848FFF78CFD41
:1007E000E06940F40010E061E06900F4001004905A
:1007F00006B010BD0054004000100240000C014043
:1008000002488168027811448160704784010020A9
:10081000074810B5016841F010010160032000F0A5
:1008200067F80F2000F006F800F024F8002010BD53
:100830000020024070B50D4D04464FF47A712878BF
:10084000B1FBF0F00A490968B1FBF0F000F0CEFA14
:1008500048B9102C07D200222146501E00F028F87B
:1008600000206C6070BD012070BD0000840100207C
:10087000900100200C4808B5816941F001018161B7
:10088000816901F001010091C16941F08051C161AC
:10089000C06900F0805000900448416821F0E06198
:1008A00041F00071416008BD0010024000000140AD
:1008B000F0B40E4B1B680C46C3F30223C3F10705CB
:1008C000042D00D90425191D072901D2002300E0B9
:1008D000DB1E012606FA05F1491E214099409E4083
:1008E000761E16403143F0BC00F029BC0CED00E050
:1008F000064900F0070208684FF6FF03184040EA77
:100900000220034A10430860704700000CED00E02D
:100910000000FA052DE9F0470F46050061D0434E6F
:10092000306800F00700B84209D2306820F00700B4
:1009300038433060306800F00700B84251D1286871
:100940003B4C810712D5400703D5606840F4E06056
:1009500060602878000703D5606840F460506060EC
:100960006068A96820F0F000084360602878C0073C
:1009700028D06868012810D02168022810D0890783
:1009800000292EDA616821F0030101436160FFF75D
:10099000A9FD804641F288390DE021688903EFE71F
:1009A0008901EDE7FFF79EFDA0EB0801494502D95B
:1009B0000320BDE8F0876068696800F00C00B0EBC8
:1009C000810FEFD1306800F00700B8420BD93068D2
:1009D00020F0070038433060306800F00700B8426C
:1009E00001D00120E5E72878400705D56068E9686F
:1009F00020F4E060084360602878000706D560684E
:100A0000296920F4605040EAC100606000F028F8D5
:100A10006168084AC1F30311515CC8400649086087
:100A200006480068FFF706FF0020C2E700200240EA
:100A300000100240341400089001002088010020BA
:100A40000448054900684968044AC1F30221515C21
:100A5000C840704790010020001002404414000874
:100A600012A185B00FC98DE80F0014A0144A0068C8
:100A700004905168134801F00C03042B10D0082B8C
:100A80000ED1C1F38343C9031DF803000AD5516891
:100A900004AAC1F34041515C0A4A5043B0FBF1F053
:100AA00005B0704708494843FAE70000020304050F
:100AB000060708090A0B0C0D0E0F101001020000AA
:100AC0000010024000127A0000093D002DE9F84FA5
:100AD000040070D02078C04DC00749D06868C0F3CA
:100AE0008100012807D06868C0F38100022809D17D
:100AF0006868C00306D52868800339D56068002877
:100B0000E7D035E06068B0F5803F0BD010B1B0F5AC
:100B1000A02F11D0286820F480302860286820F4A5
:100B2000802002E0286840F480302860606890B13E
:100B3000FFF7D8FC06460AE0286840F480202860C9
:100B4000F0E700BFFFF7CEFC801B642873D828684D
:100B50008003F7D50CE0FFF7C5FC064605E000BFB3
:100B6000FFF7C0FC801B6428F0D828688003F7D406
:100B700020789A4E80074FF001094FF0000839D5D0
:100B8000686810F00C0F07D06868C0F38100022875
:100B900009D16868C00306D42868800714D5206985
:100BA000012808D110E02069B0B1C6F80090FFF725
:100BB00099FC074605E00AE1FFF794FCC01B0228F8
:100BC000C4D828688007F7D52868616920F0F80044
:100BD00040EAC10028600DE0C6F80080FFF782FC03
:100BE000074604E0FFF77EFCC01B022823D82868D4
:100BF0008007F7D4207800072CD57948A169D9B1AE
:100C0000C0F80090FFF76EFC074604E0FFF76AFCAF
:100C1000C01B02280FD8686A8007F7D571484FF4C7
:100C2000FA510068B0FBF1F0009000BF0098411E3F
:100C30000091FAD20EE080E0C0F80080FFF752FC8D
:100C4000074604E0FFF74EFCC01B022875D8686A0F
:100C50008007F7D42078400760D5E8690027C000F6
:100C600008D4E86940F08050E861E869012700F0A5
:100C7000805000905C480168C90513D40168834620
:100C800041F480710160FFF72DFC824606E000BF51
:100C9000FFF728FCA0EB0A0064284ED8DBF8000020
:100CA000C005F5D5E06801280AD008B1052813D0A1
:100CB000286A20F001002862286A20F0040002E07F
:100CC000286A40F001002862E06841F2883B98B150
:100CD000FFF708FC82460BE0286A40F00400286217
:100CE000EEE700BFFFF7FEFBA0EB0A0159455AD81B
:100CF000286A8007F6D50CE0FFF7F4FB824605E092
:100D0000FFF7F0FBA0EB0A0159454CD8286A800791
:100D1000F6D41FB1E86920F08050E861E06988B33B
:100D20006968C1F38101022944D00228C6F86080B5
:100D300004D0FFF7D7FB044638E034E0FFF7D2FBDE
:100D4000074604E0FFF7CEFBC01B02282BD828681B
:100D50008001F7D4206AB0F5803F05D16868A168AA
:100D600020F4003008436860D4E90801084369684A
:100D700021F4741108436860C6F86090FFF7B2FB75
:100D8000044606E025E000BFFFF7ACFB001B02288D
:100D900009D828688001F7D51BE000BFFFF7A2FB48
:100DA000001B022802D90320BDE8F88F28688001C3
:100DB000F4D40EE00128F7D06868226A00F480318C
:100DC000914204D1616A00F47010884201D0012080
:100DD000EAE70020E8E7000000100240000042427D
:100DE00080044242900100200070004010B5401E77
:100DF000B0F1807F01D3012010BD4FF0E02460618D
:100E00000F21601700F09BF90020A06107202061EE
:100E1000002010BDFEE701684A69D24352050FD495
:100E20006FF480624A61002140F8301F2022427333
:100E30008173026942F0040202610173012070476C
:100E400000207047F8B50446C06A1E460D46174696
:100E5000082807D0012805D010F5803F02D0206B6C
:100E6000122804D12068016841F4807101601346A2
:100E700000224FF001112046009600F057F840B1D3
:100E800020680068C00502D54FF40070206403207C
:100E9000F8BD2069B0F5804F0ED00620216800EA29
:100EA000D51040F0F000086133463A460B49204621
:100EB00000F070F878B902E005F0FE0000E0E8B25A
:100EC00021680861054933463A46891F204600F0EB
:100ED00061F80028DCD00120F8BD00000800010006
:100EE00070B516460D4604460DE02046FFF793FF09
:100EF00008B1012070BD681C05D0FFF7F3FA801B14
:100F0000A84207D835B120684069C0434007ECD4F7
:100F1000002070BD002044F8300F20216173A073C1
:100F2000216941F0200121612073E2E72DE9F047BA
:100F30001E4690460D460446C1F30747DDF8209053
:100F400008E0701C06D0FFF7CDFAA0EB0900B04214
:100F50000FD876B12068012F18D0806925EA0000EB
:100F60000004000C14D000214145EAD00020BDE867
:100F7000F087002044F8300F20216173A0732169AD
:100F800041F02001216120730120F0E74069E5E78D
:100F90000121E9E72DE9F0479A4691460E460446BD
:100FA00000254FF02008C1F3074725E0206840697D
:100FB000C043400514D42068016841F40071016009
:100FC00021686FF480604861256384F83D8084F86F
:100FD0003E50206C40F00400206484F83C501FE038
:100FE000B9F1FF3F08D0FFF77DFAA0EB0A014945B0
:100FF0000CD8B9F1000F09D02068012F13D08069F7
:1010000026EA00000004000C0BD0CFE744F8305F64
:1010100084F80D80A573206940F0200020612573BD
:101020000120BDE8F0874069EAE770B516460D4635
:1010300004460DE02046FFF7EEFE08B1012070BD2A
:10104000681C05D0FFF74EFA801BA84207D835B1BF
:1010500020684069C0430006ECD4002070BD002029
:1010600044F8300F20216173A073216941F0200101
:1010700021612073E2E7000000B585B000200190F7
:1010800003901148816941F020018161816901F07B
:1010900020010491816941F004018161816901F0BD
:1010A00004010491816941F0080181618069694608
:1010B00000F0080004903E200090022002900348B7
:1010C000FFF71AF905B000BD00100240000801400A
:1010D000FEE7FEE770477047FFF792BB30B58FB071
:1010E00028216846FFF790F814210AA8FFF78CF82A
:1010F00001210804CDE90010002402940225049186
:10110000CDE907504FF4E01009906846FFF7DEFC88
:1011100008B172B6FEE70F20CDE90A054FF48060F2
:10112000CDE90C4002210AA80E94FFF7F3FB00283A
:1011300001D072B6FEE70FB030BD7047FEE7090779
:10114000090E002804DB00F1E02080F8001470474D
:1011500000F00F0000F1E02080F8141D704700003F
:1011600070B50D4604460021084600F06FF8201DBA
:1011700000F0C2F80021012000F068F804F1180026
:1011800000F0BAF80021022000F060F804F130000D
:1011900000F0B2F80021032000F058F804F14800F4
:1011A00000F0AAF80021284600F050F8BDE8704091
:1011B00001A000F0A1B800002D3E000010B5802075
:1011C00000F05AF80024202000F076F8641C502C1F
:1011D000F9DB10BD10B53220FFF77CF8302000F0AD
:1011E0004BF80520FFF776F8302000F045F8012095
:1011F000FFF770F8302000F03FF80A20FFF76AF898
:10120000202000F039F80A20FFF764F8282000F0C9
:1012100033F80120FFF75EF8082000F02DF80120D8
:10122000FFF758F8012000F027F80120FFF752F8E7
:101230000120FFF74FF8062000F01EF80120FFF70D
:1012400049F8BDE810400C2000F016B830B1012874
:1012500007D0022808D003280BD108E041F0800114
:1012600007E041F0C00104E041F0940101E041F0E9
:10127000D401C8B2AFF300801CB500F0F00141F01A
:101280000C028DF8042041F0080100018DF80510D2
:1012900040F00C018DF8061040F008008DF80700B2
:1012A00064200090042301AA4E210248FFF7E4F9CC
:1012B0001CBD0000940100201CB500F0F00141F0BD
:1012C0000D028DF8042041F0090100018DF8051090
:1012D00040F00D018DF8061040F009008DF8070070
:1012E00064200090042301AA4E210248FFF7C4F9AC
:1012F0001CBD00009401002010B5044602E0641CEF
:10130000FFF7DAFF20780028F9D110BDFFF780FA47
:10131000FFF7E4FEFFF7B0FE424841494FF4804238
:1013200001604149416000218160C0E903124161CF
:101330008161C1610162FFF7DBF808B172B6FEE7B7
:10134000FFF748FFFFF73AFF384C251F2046297862
:10135000FFF706FF364E04213046FFF7BDF801289F
:101360000ED104213046FFF7B7F80128F9D02878CC
:1013700003280CD0401CC1B229702046FFF7F0FEB4
:1013800002213046FFF7A8F8012802D010E0012022
:10139000F1E702213046FFF79FF80128F9D02878BD
:1013A00001280CD0401EC1B229702046FFF7D8FE9C
:1013B00010213046FFF790F8012802D01BE00320EF
:1013C000F1E710213046FFF787F80128F9D0297896
:1013D000012904D0022904D0032909D105E0E06ADB
:1013E00004E0606C18B9204601E0E06D00B10446ED
:1013F0002046FFF7B5FE08213046FFF76DF80128BB
:10140000A9D108213046FFF767F80128F9D02068F4
:1014100000B1044629782046FFF7A2FE9BE70000B2
:101420000054004094010020A08601000400002028
:101430000008014000000000000000000102030459
:101440000607080900000000010203046C140008EC
:10145000000000209401000028010008EC1400089E
:1014600094010020B4060000840100087201280FD6
:10147000090909204D41494E204D454E5520012175
:10148000380A20204F7074696F6E311049012A6448
:101490001759189A32189AC4189A33181324011B32
:1014A00020041C295F5C656E7551BA09609A34305E
:1014B0004169180A1535181A36AD19509129603945
:1014C000018962599B490D0A1537480A153818DAFF
:1014D0003918F9C0CA33C00B143130480B153131FB
:0C14E00018CA32C1320182101324F4003B
:04000005080000ED02
:00000001FF
